{
  "_format": "hh-sol-artifact-1",
  "contractName": "MintsLabFactory",
  "sourceName": "contracts/MintsLab.sol",
  "abi": [
    {
      "inputs": [
        {
          "internalType": "address",
          "name": "_wallet",
          "type": "address"
        },
        {
          "internalType": "address",
          "name": "_dev",
          "type": "address"
        },
        {
          "internalType": "uint256",
          "name": "_govShare",
          "type": "uint256"
        },
        {
          "internalType": "uint256",
          "name": "_signupFees",
          "type": "uint256"
        },
        {
          "internalType": "uint256",
          "name": "_initialRoyality",
          "type": "uint256"
        }
      ],
      "stateMutability": "nonpayable",
      "type": "constructor"
    },
    {
      "inputs": [
        {
          "internalType": "address",
          "name": "newGov",
          "type": "address"
        }
      ],
      "name": "changeGovernance",
      "outputs": [],
      "stateMutability": "nonpayable",
      "type": "function"
    },
    {
      "inputs": [
        {
          "internalType": "uint256",
          "name": "ftype",
          "type": "uint256"
        }
      ],
      "name": "checkRoyality",
      "outputs": [
        {
          "internalType": "bool",
          "name": "",
          "type": "bool"
        },
        {
          "internalType": "uint256",
          "name": "",
          "type": "uint256"
        }
      ],
      "stateMutability": "view",
      "type": "function"
    },
    {
      "inputs": [
        {
          "internalType": "string",
          "name": "name",
          "type": "string"
        },
        {
          "internalType": "string",
          "name": "symbol",
          "type": "string"
        }
      ],
      "name": "createNFTshop",
      "outputs": [
        {
          "internalType": "address",
          "name": "_shop",
          "type": "address"
        }
      ],
      "stateMutability": "nonpayable",
      "type": "function"
    },
    {
      "inputs": [
        {
          "internalType": "uint256",
          "name": "",
          "type": "uint256"
        }
      ],
      "name": "ftypetoRoyality",
      "outputs": [
        {
          "internalType": "uint256",
          "name": "",
          "type": "uint256"
        }
      ],
      "stateMutability": "view",
      "type": "function"
    },
    {
      "inputs": [],
      "name": "governanceDetails",
      "outputs": [
        {
          "internalType": "address",
          "name": "",
          "type": "address"
        },
        {
          "internalType": "address",
          "name": "",
          "type": "address"
        },
        {
          "internalType": "uint256",
          "name": "",
          "type": "uint256"
        }
      ],
      "stateMutability": "view",
      "type": "function"
    },
    {
      "inputs": [
        {
          "internalType": "uint256",
          "name": "_govSharePercentage",
          "type": "uint256"
        },
        {
          "internalType": "bool",
          "name": "_royalityStatus",
          "type": "bool"
        }
      ],
      "name": "updateGovernanceShare",
      "outputs": [],
      "stateMutability": "nonpayable",
      "type": "function"
    },
    {
      "inputs": [
        {
          "internalType": "uint256",
          "name": "_ftype",
          "type": "uint256"
        },
        {
          "internalType": "uint256",
          "name": "_royality",
          "type": "uint256"
        },
        {
          "internalType": "bool",
          "name": "_royalityStatus",
          "type": "bool"
        }
      ],
      "name": "updateRoyality",
      "outputs": [],
      "stateMutability": "nonpayable",
      "type": "function"
    },
    {
      "inputs": [
        {
          "internalType": "address",
          "name": "",
          "type": "address"
        }
      ],
      "name": "userToShop",
      "outputs": [
        {
          "internalType": "address",
          "name": "",
          "type": "address"
        }
      ],
      "stateMutability": "view",
      "type": "function"
    }
  ],
  "bytecode": "0x60a060405234801561001057600080fd5b50604051612fb9380380612fb983398101604081905261002f9161013c565b60008054610100600160a81b0319166101006001600160a01b039788160217815593909416608052600191909155600255600460208190527f17ef568e3e12ab5b9c7254a8d58478811de00f9e6eb34345acd53bf8fd09d3ec8390557fabd6e7cb50984ff9c2f3e18a2660c3353dadf4e3291deeb275dae2cd1e44fe058390557f91da3fd0782e51c6b3986e9e672fd566868e71f3dbc2d6c2cd6fbb3e361af2a78390557f2e174c10e159ea99b867ce3205125c24a42d128804e4070ed6fcc8cc98166aa083905590527f1a1e6821cde7d0159c0d293177871e09677b4e42307c7db3ba94f8648a5a050f5561018a565b80516001600160a01b038116811461013757600080fd5b919050565b600080600080600060a0868803121561015457600080fd5b61015d86610120565b945061016b60208701610120565b6040870151606088015160809098015196999198509695945092505050565b608051612e146101a5600039600061018a0152612e146000f3fe60806040523480156200001157600080fd5b5060043610620000925760003560e01c806377ceb09a116200006257806377ceb09a146200016b57806399572d6f14620001bb57806399d7d5d614620001d4578063f855c06914620001eb57600080fd5b80620b4ce114620000975780631baad1ad14620000e05780635138515d14620001125780635df92fda1462000129575b600080fd5b620000c3620000a836600462000506565b6003602052600090815260409020546001600160a01b031681565b6040516001600160a01b0390911681526020015b60405180910390f35b62000103620000f136600462000538565b60046020526000908152604090205481565b604051908152602001620000d7565b620000c3620001233660046200059e565b62000202565b620001536200013a36600462000538565b600080549181526004602052604090205460ff90911691565b604080519215158352602083019190915201620000d7565b600054600154604080516101009093046001600160a01b0390811684527f0000000000000000000000000000000000000000000000000000000000000000166020840152820152606001620000d7565b620001d2620001cc36600462000506565b62000397565b005b620001d2620001e536600462000627565b6200041c565b620001d2620001fc36600462000656565b6200047b565b336000908152600360205260408120546001600160a01b031615620002535760405162461bcd60e51b8152602060048201526002602482015261414560f01b60448201526064015b60405180910390fd5b600254156200030f57600080546002546040516101009092046001600160a01b03169160006040518083038185875af1925050503d8060008114620002b5576040519150601f19603f3d011682016040523d82523d6000602084013e620002ba565b606091505b50509050806200030d5760405162461bcd60e51b815260206004820152600660248201527f4661696c6564000000000000000000000000000000000000000000000000000060448201526064016200024a565b505b848484846040516200032190620004f8565b620003309493929190620006b7565b604051809103906000f0801580156200034d573d6000803e3d6000fd5b5033600090815260036020526040902080547fffffffffffffffffffffffff0000000000000000000000000000000000000000166001600160a01b03831617905595945050505050565b60005461010090046001600160a01b03163314620003dd5760405162461bcd60e51b81526020600482015260026024820152614e4160f01b60448201526064016200024a565b600080546001600160a01b03909216610100027fffffffffffffffffffffff0000000000000000000000000000000000000000ff909216919091179055565b60005461010090046001600160a01b03163314620004625760405162461bcd60e51b81526020600482015260026024820152614e4160f01b60448201526064016200024a565b6001919091556000805460ff1916911515919091179055565b60005461010090046001600160a01b03163314620004c15760405162461bcd60e51b81526020600482015260026024820152614e4160f01b60448201526064016200024a565b6005831015620004de575060009182526004602052604090912055565b60028290556000805482151560ff19909116179055505050565b61271a80620006ee83390190565b6000602082840312156200051957600080fd5b81356001600160a01b03811681146200053157600080fd5b9392505050565b6000602082840312156200054b57600080fd5b5035919050565b60008083601f8401126200056557600080fd5b50813567ffffffffffffffff8111156200057e57600080fd5b6020830191508360208285010111156200059757600080fd5b9250929050565b60008060008060408587031215620005b557600080fd5b843567ffffffffffffffff80821115620005ce57600080fd5b620005dc8883890162000552565b90965094506020870135915080821115620005f657600080fd5b50620006058782880162000552565b95989497509550505050565b803580151581146200062257600080fd5b919050565b600080604083850312156200063b57600080fd5b823591506200064d6020840162000611565b90509250929050565b6000806000606084860312156200066c57600080fd5b8335925060208401359150620006856040850162000611565b90509250925092565b81835281816020850137506000828201602090810191909152601f909101601f19169091010190565b604081526000620006cd6040830186886200068e565b8281036020840152620006e28185876200068e565b97965050505050505056fe60806040523480156200001157600080fd5b506040516200271a3803806200271a833981016040819052620000349162000379565b8151829082906200004d90600090602085019062000206565b5080516200006390600190602084019062000206565b5050506200007d6007620000ad60201b6200132e1760201c565b6000620000966007620000b660201b620013371760201c565b9050620000a43382620000ba565b50505062000447565b80546001019055565b5490565b6001600160a01b038216620001165760405162461bcd60e51b815260206004820181905260248201527f4552433732313a206d696e7420746f20746865207a65726f206164647265737360448201526064015b60405180910390fd5b6000818152600260205260409020546001600160a01b0316156200017d5760405162461bcd60e51b815260206004820152601c60248201527f4552433732313a20746f6b656e20616c7265616479206d696e7465640000000060448201526064016200010d565b6001600160a01b0382166000908152600360205260408120805460019290620001a8908490620003e3565b909155505060008181526002602052604080822080546001600160a01b0319166001600160a01b03861690811790915590518392907fddf252ad1be2c89b69c2b068fc378daa952ba7f163c4a11628f55a4df523b3ef908290a45050565b82805462000214906200040a565b90600052602060002090601f01602090048101928262000238576000855562000283565b82601f106200025357805160ff191683800117855562000283565b8280016001018555821562000283579182015b828111156200028357825182559160200191906001019062000266565b506200029192915062000295565b5090565b5b8082111562000291576000815560010162000296565b634e487b7160e01b600052604160045260246000fd5b600082601f830112620002d457600080fd5b81516001600160401b0380821115620002f157620002f1620002ac565b604051601f8301601f19908116603f011681019082821181831017156200031c576200031c620002ac565b816040528381526020925086838588010111156200033957600080fd5b600091505b838210156200035d57858201830151818301840152908201906200033e565b838211156200036f5760008385830101525b9695505050505050565b600080604083850312156200038d57600080fd5b82516001600160401b0380821115620003a557600080fd5b620003b386838701620002c2565b93506020850151915080821115620003ca57600080fd5b50620003d985828601620002c2565b9150509250929050565b600082198211156200040557634e487b7160e01b600052601160045260246000fd5b500190565b600181811c908216806200041f57607f821691505b602082108114156200044157634e487b7160e01b600052602260045260246000fd5b50919050565b6122c380620004576000396000f3fe6080604052600436106101485760003560e01c80636352211e116100c0578063a22cb46511610074578063c87b56dd11610059578063c87b56dd14610490578063e8c5cba2146104b0578063e985e9c5146104d057600080fd5b8063a22cb46514610450578063b88d4fde1461047057600080fd5b8063880cdc31116100a5578063880cdc31146103fb57806395d89b411461041b578063976a98841461043057600080fd5b80636352211e146103bb57806370a08231146103db57600080fd5b8063150b7a021161011757806323b872dd116100fc57806323b872dd1461034d57806342842e0e1461036d5780635ae852861461038d57600080fd5b8063150b7a021461029757806321a94903146102db57600080fd5b806301ffc9a7146101e657806306fdde031461021b578063081812fc1461023d578063095ea7b31461027557600080fd5b366101e1576008546040516000916001600160a01b03169034908381818185875af1925050503d806000811461019a576040519150601f19603f3d011682016040523d82523d6000602084013e61019f565b606091505b50509050806101de5760405162461bcd60e51b815260206004820152600660248201526511985a5b195960d21b60448201526064015b60405180910390fd5b50005b600080fd5b3480156101f257600080fd5b50610206610201366004611cf6565b610519565b60405190151581526020015b60405180910390f35b34801561022757600080fd5b5061023061056b565b6040516102129190611d4c565b34801561024957600080fd5b5061025d610258366004611d7f565b6105fd565b6040516001600160a01b039091168152602001610212565b34801561028157600080fd5b50610295610290366004611db0565b610692565b005b3480156102a357600080fd5b506102c26102b2366004611e68565b630a85bd0160e11b949350505050565b6040516001600160e01b03199091168152602001610212565b3480156102e757600080fd5b5061033b6102f6366004611d7f565b600a6020526000908152604090208054600182015460028301546003909301549192909160ff808216916001600160a01b0361010082041691600160a81b9091041686565b60405161021296959493929190611efe565b34801561035957600080fd5b50610295610368366004611f59565b6107a8565b34801561037957600080fd5b50610295610388366004611f59565b61082f565b34801561039957600080fd5b506103ad6103a8366004611fba565b610abd565b604051908152602001610212565b3480156103c757600080fd5b5061025d6103d6366004611d7f565b610bb8565b3480156103e757600080fd5b506103ad6103f6366004612017565b610c43565b34801561040757600080fd5b50610295610416366004612017565b610cdd565b34801561042757600080fd5b50610230610d58565b34801561043c57600080fd5b5061029561044b366004612034565b610d67565b34801561045c57600080fd5b5061029561046b366004612072565b610e31565b34801561047c57600080fd5b5061029561048b366004611e68565b610e40565b34801561049c57600080fd5b506102306104ab366004611d7f565b611141565b3480156104bc57600080fd5b506102956104cb3660046120a0565b6112d4565b3480156104dc57600080fd5b506102066104eb3660046120da565b6001600160a01b03918216600090815260056020908152604080832093909416825291909152205460ff1690565b60006001600160e01b031982166380ac58cd60e01b148061054a57506001600160e01b03198216635b5e139f60e01b145b8061056557506301ffc9a760e01b6001600160e01b03198316145b92915050565b60606000805461057a90612108565b80601f01602080910402602001604051908101604052809291908181526020018280546105a690612108565b80156105f35780601f106105c8576101008083540402835291602001916105f3565b820191906000526020600020905b8154815290600101906020018083116105d657829003601f168201915b5050505050905090565b6000818152600260205260408120546001600160a01b03166106765760405162461bcd60e51b815260206004820152602c60248201527f4552433732313a20617070726f76656420717565727920666f72206e6f6e657860448201526b34b9ba32b73a103a37b5b2b760a11b60648201526084016101d5565b506000908152600460205260409020546001600160a01b031690565b600061069d82610bb8565b9050806001600160a01b0316836001600160a01b0316141561070b5760405162461bcd60e51b815260206004820152602160248201527f4552433732313a20617070726f76616c20746f2063757272656e74206f776e656044820152603960f91b60648201526084016101d5565b336001600160a01b0382161480610727575061072781336104eb565b6107995760405162461bcd60e51b815260206004820152603860248201527f4552433732313a20617070726f76652063616c6c6572206973206e6f74206f7760448201527f6e6572206e6f7220617070726f76656420666f7220616c6c000000000000000060648201526084016101d5565b6107a3838361133b565b505050565b6107b233826113a9565b6108245760405162461bcd60e51b815260206004820152603160248201527f4552433732313a207472616e736665722063616c6c6572206973206e6f74206f60448201527f776e6572206e6f7220617070726f76656400000000000000000000000000000060648201526084016101d5565b6107a383838361149c565b61083933826113a9565b6108725760405162461bcd60e51b815260206004820152600a6024820152694552433732313a204e4160b01b60448201526064016101d5565b6009546000828152600a6020526040812060030154909182916001600160a01b0390911690635df92fda90600160a81b900460ff1660048111156108b8576108b8611ee8565b6040518263ffffffff1660e01b81526004016108d691815260200190565b604080518083038186803b1580156108ed57600080fd5b505afa158015610901573d6000803e3d6000fd5b505050506040513d601f19601f820116820180604052508101906109259190612143565b6000858152600a6020526040812060038101805474ffffffffffffffffffffffffffffffffffffffff00191633610100021790556001015492945090925090606490610972908490612187565b61097c91906121bc565b90508215610a26576000806000600960009054906101000a90046001600160a01b03166001600160a01b03166377ceb09a6040518163ffffffff1660e01b815260040160606040518083038186803b1580156109d757600080fd5b505afa1580156109eb573d6000803e3d6000fd5b505050506040513d601f19601f82011682018060405250810190610a0f91906121d0565b925092509250610a228784848785611650565b5050505b6000848152600a6020526040812060038101546001909101546101009091046001600160a01b031690610a5a908490612213565b604051600081818185875af1925050503d8060008114610a96576040519150601f19603f3d011682016040523d82523d6000602084013e610a9b565b606091505b5050905080610aa957600080fd5b610ab487878761082f565b50505050505050565b6008546000906001600160a01b03163314610ad757600080fd5b610ae5600780546001019055565b6000610af060075490565b6000818152600a602052604090208181556001810187905560038101805474ffffffffffffffffffffffffffffffffffffffff0019811633610100029081178355939450919287927fffffffffffffffffffff000000000000000000000000000000000000000000ff167fffffffffffffffffffff00ffffffffffffffffffffffffffffffffffffffffff90911617600160a81b836004811115610b9657610b96611ee8565b0217905550610ba53383611797565b610baf82856118d9565b50949350505050565b6000818152600260205260408120546001600160a01b0316806105655760405162461bcd60e51b815260206004820152602960248201527f4552433732313a206f776e657220717565727920666f72206e6f6e657869737460448201527f656e7420746f6b656e000000000000000000000000000000000000000000000060648201526084016101d5565b60006001600160a01b038216610cc15760405162461bcd60e51b815260206004820152602a60248201527f4552433732313a2062616c616e636520717565727920666f7220746865207a6560448201527f726f20616464726573730000000000000000000000000000000000000000000060648201526084016101d5565b506001600160a01b031660009081526003602052604090205490565b6008546001600160a01b03163314610cf457600080fd5b600880546001600160a01b031981166001600160a01b0384811691821790935560408051308152939092166020840152908201527f238b877ece1acdd51ad1803313b1797041a652b7d67be47e76d9b95085f69c889060600160405180910390a150565b60606001805461057a90612108565b6008546001600160a01b03163314610d7e57600080fd5b6001600160a01b03811615801590610d965750600082115b610dc75760405162461bcd60e51b81526020600482015260026024820152615a4160f01b60448201526064016101d5565b604051632142170760e11b81523360048201526001600160a01b03821660248201526044810183905230906342842e0e90606401600060405180830381600087803b158015610e1557600080fd5b505af1158015610e29573d6000803e3d6000fd5b505050505050565b610e3c338383611982565b5050565b610e4a33836113a9565b610e835760405162461bcd60e51b815260206004820152600a6024820152694552433732313a204e4160b01b60448201526064016101d5565b6000828152600a60209081526040808320815160c08101835281548152600182015493810193909352600281015491830191909152600381015460ff808216151560608501526001600160a01b03610100830416608085015260a0840191600160a81b9004166004811115610efa57610efa611ee8565b6004811115610f0b57610f0b611ee8565b90525060095460a082015191925060009182916001600160a01b031690635df92fda906004811115610f3f57610f3f611ee8565b6040518263ffffffff1660e01b8152600401610f5d91815260200190565b604080518083038186803b158015610f7457600080fd5b505afa158015610f88573d6000803e3d6000fd5b505050506040513d601f19601f82011682018060405250810190610fac9190612143565b6000878152600a6020526040812060038101805474ffffffffffffffffffffffffffffffffffffffff00191633610100021790556001015492945090925090606490610ff9908490612187565b61100391906121bc565b905082156110ad576000806000600960009054906101000a90046001600160a01b03166001600160a01b03166377ceb09a6040518163ffffffff1660e01b815260040160606040518083038186803b15801561105e57600080fd5b505afa158015611072573d6000803e3d6000fd5b505050506040513d601f19601f8201168201806040525081019061109691906121d0565b9250925092506110a98984848785611650565b5050505b60808401516000878152600a602052604081206001015490916001600160a01b0316906110db908490612213565b604051600081818185875af1925050503d8060008114611117576040519150601f19603f3d011682016040523d82523d6000602084013e61111c565b606091505b505090508061112a57600080fd5b61113689898989610e40565b505050505050505050565b6000818152600260205260409020546060906001600160a01b03166111ce5760405162461bcd60e51b815260206004820152603160248201527f45524337323155524953746f726167653a2055524920717565727920666f722060448201527f6e6f6e6578697374656e7420746f6b656e00000000000000000000000000000060648201526084016101d5565b600082815260066020526040812080546111e790612108565b80601f016020809104026020016040519081016040528092919081815260200182805461121390612108565b80156112605780601f1061123557610100808354040283529160200191611260565b820191906000526020600020905b81548152906001019060200180831161124357829003601f168201915b50505050509050600061127e60408051602081019091526000815290565b9050805160001415611291575092915050565b8151156112c35780826040516020016112ab92919061222a565b60405160208183030381529060405292505050919050565b6112cc84611a51565b949350505050565b6000838152600a6020526040902060030154839061010090046001600160a01b0316331461130157600080fd5b8360011461131e576000848152600a602052604090206001018390555b61132884836118d9565b50505050565b80546001019055565b5490565b600081815260046020526040902080546001600160a01b0319166001600160a01b038416908117909155819061137082610bb8565b6001600160a01b03167f8c5be1e5ebec7d5bd14f71427d1e84f3dd0314c0f7b2291e5b200ac8c7c3b92560405160405180910390a45050565b6000818152600260205260408120546001600160a01b03166114225760405162461bcd60e51b815260206004820152602c60248201527f4552433732313a206f70657261746f7220717565727920666f72206e6f6e657860448201526b34b9ba32b73a103a37b5b2b760a11b60648201526084016101d5565b600061142d83610bb8565b9050806001600160a01b0316846001600160a01b031614806114685750836001600160a01b031661145d846105fd565b6001600160a01b0316145b806112cc57506001600160a01b0380821660009081526005602090815260408083209388168352929052205460ff166112cc565b826001600160a01b03166114af82610bb8565b6001600160a01b03161461152b5760405162461bcd60e51b815260206004820152602560248201527f4552433732313a207472616e736665722066726f6d20696e636f72726563742060448201527f6f776e657200000000000000000000000000000000000000000000000000000060648201526084016101d5565b6001600160a01b03821661158d5760405162461bcd60e51b8152602060048201526024808201527f4552433732313a207472616e7366657220746f20746865207a65726f206164646044820152637265737360e01b60648201526084016101d5565b61159860008261133b565b6001600160a01b03831660009081526003602052604081208054600192906115c1908490612213565b90915550506001600160a01b03821660009081526003602052604081208054600192906115ef908490612259565b909155505060008181526002602052604080822080546001600160a01b0319166001600160a01b0386811691821790925591518493918716917fddf252ad1be2c89b69c2b068fc378daa952ba7f163c4a11628f55a4df523b3ef91a4505050565b6000858152600a602052604090206001015434101561169a5760405162461bcd60e51b815260206004820152600660248201526511985a5b195960d21b60448201526064016101d5565b60006116a683836121bc565b6116b1906064612187565b90506000856001600160a01b03168260405160006040518083038185875af1925050503d8060008114611700576040519150601f19603f3d011682016040523d82523d6000602084013e611705565b606091505b505090508061171357600080fd5b61171e836064612213565b915061172a84836121bc565b611735906064612187565b9150846001600160a01b03168260405160006040518083038185875af1925050503d8060008114611782576040519150601f19603f3d011682016040523d82523d6000602084013e611787565b606091505b50508091505080610ab457600080fd5b6001600160a01b0382166117ed5760405162461bcd60e51b815260206004820181905260248201527f4552433732313a206d696e7420746f20746865207a65726f206164647265737360448201526064016101d5565b6000818152600260205260409020546001600160a01b0316156118525760405162461bcd60e51b815260206004820152601c60248201527f4552433732313a20746f6b656e20616c7265616479206d696e7465640000000060448201526064016101d5565b6001600160a01b038216600090815260036020526040812080546001929061187b908490612259565b909155505060008181526002602052604080822080546001600160a01b0319166001600160a01b03861690811790915590518392907fddf252ad1be2c89b69c2b068fc378daa952ba7f163c4a11628f55a4df523b3ef908290a45050565b6000828152600260205260409020546001600160a01b03166119635760405162461bcd60e51b815260206004820152602e60248201527f45524337323155524953746f726167653a2055524920736574206f66206e6f6e60448201527f6578697374656e7420746f6b656e00000000000000000000000000000000000060648201526084016101d5565b600082815260066020908152604090912082516107a392840190611c5d565b816001600160a01b0316836001600160a01b031614156119e45760405162461bcd60e51b815260206004820152601960248201527f4552433732313a20617070726f766520746f2063616c6c65720000000000000060448201526064016101d5565b6001600160a01b03838116600081815260056020908152604080832094871680845294825291829020805460ff191686151590811790915591519182527f17307eab39ab6107e8899845ad3d59bd9653f200f220920489ca2b5937696c31910160405180910390a3505050565b6000818152600260205260409020546060906001600160a01b0316611ade5760405162461bcd60e51b815260206004820152602f60248201527f4552433732314d657461646174613a2055524920717565727920666f72206e6f60448201527f6e6578697374656e7420746f6b656e000000000000000000000000000000000060648201526084016101d5565b6000611af560408051602081019091526000815290565b90506000815111611b155760405180602001604052806000815250611b40565b80611b1f84611b47565b604051602001611b3092919061222a565b6040516020818303038152906040525b9392505050565b606081611b6b5750506040805180820190915260018152600360fc1b602082015290565b8160005b8115611b955780611b7f81612271565b9150611b8e9050600a836121bc565b9150611b6f565b60008167ffffffffffffffff811115611bb057611bb0611ddc565b6040519080825280601f01601f191660200182016040528015611bda576020820181803683370190505b5090505b84156112cc57611bef600183612213565b9150611bfc600a8661228c565b611c07906030612259565b60f81b818381518110611c1c57611c1c6122a0565b60200101907effffffffffffffffffffffffffffffffffffffffffffffffffffffffffffff1916908160001a905350611c56600a866121bc565b9450611bde565b828054611c6990612108565b90600052602060002090601f016020900481019282611c8b5760008555611cd1565b82601f10611ca457805160ff1916838001178555611cd1565b82800160010185558215611cd1579182015b82811115611cd1578251825591602001919060010190611cb6565b50611cdd929150611ce1565b5090565b5b80821115611cdd5760008155600101611ce2565b600060208284031215611d0857600080fd5b81356001600160e01b031981168114611b4057600080fd5b60005b83811015611d3b578181015183820152602001611d23565b838111156113285750506000910152565b6020815260008251806020840152611d6b816040850160208701611d20565b601f01601f19169190910160400192915050565b600060208284031215611d9157600080fd5b5035919050565b6001600160a01b0381168114611dad57600080fd5b50565b60008060408385031215611dc357600080fd5b8235611dce81611d98565b946020939093013593505050565b634e487b7160e01b600052604160045260246000fd5b600067ffffffffffffffff80841115611e0d57611e0d611ddc565b604051601f8501601f19908116603f01168101908282118183101715611e3557611e35611ddc565b81604052809350858152868686011115611e4e57600080fd5b858560208301376000602087830101525050509392505050565b60008060008060808587031215611e7e57600080fd5b8435611e8981611d98565b93506020850135611e9981611d98565b925060408501359150606085013567ffffffffffffffff811115611ebc57600080fd5b8501601f81018713611ecd57600080fd5b611edc87823560208401611df2565b91505092959194509250565b634e487b7160e01b600052602160045260246000fd5b868152602081018690526040810185905283151560608201526001600160a01b038316608082015260c0810160058310611f4857634e487b7160e01b600052602160045260246000fd5b8260a0830152979650505050505050565b600080600060608486031215611f6e57600080fd5b8335611f7981611d98565b92506020840135611f8981611d98565b929592945050506040919091013590565b600082601f830112611fab57600080fd5b611b4083833560208501611df2565b600080600060608486031215611fcf57600080fd5b83359250602084013560058110611fe557600080fd5b9150604084013567ffffffffffffffff81111561200157600080fd5b61200d86828701611f9a565b9150509250925092565b60006020828403121561202957600080fd5b8135611b4081611d98565b6000806040838503121561204757600080fd5b82359150602083013561205981611d98565b809150509250929050565b8015158114611dad57600080fd5b6000806040838503121561208557600080fd5b823561209081611d98565b9150602083013561205981612064565b6000806000606084860312156120b557600080fd5b8335925060208401359150604084013567ffffffffffffffff81111561200157600080fd5b600080604083850312156120ed57600080fd5b82356120f881611d98565b9150602083013561205981611d98565b600181811c9082168061211c57607f821691505b6020821081141561213d57634e487b7160e01b600052602260045260246000fd5b50919050565b6000806040838503121561215657600080fd5b825161216181612064565b6020939093015192949293505050565b634e487b7160e01b600052601160045260246000fd5b60008160001904831182151516156121a1576121a1612171565b500290565b634e487b7160e01b600052601260045260246000fd5b6000826121cb576121cb6121a6565b500490565b6000806000606084860312156121e557600080fd5b83516121f081611d98565b602085015190935061220181611d98565b80925050604084015190509250925092565b60008282101561222557612225612171565b500390565b6000835161223c818460208801611d20565b835190830190612250818360208801611d20565b01949350505050565b6000821982111561226c5761226c612171565b500190565b600060001982141561228557612285612171565b5060010190565b60008261229b5761229b6121a6565b500690565b634e487b7160e01b600052603260045260246000fdfea164736f6c6343000809000aa164736f6c6343000809000a",
  "linkReferences": {},
  "deployedLinkReferences": {}
}